:020000040800F2
:10000000005000209D1E0008351C00083D1C000803
:10001000451C00084D1C0008551C0008000000008D
:100020000000000000000000000000005D1C00084F
:10003000691C000800000000751C0008811C0008F5
:10004000E51E0008E51E0008E51E0008E51E000884
:10005000E51E0008E51E0008E51E0008E51E000874
:10006000E51E0008E51E0008E51E0008E51E000864
:10007000E51E0008E51E0008E51E0008E51E000854
:10008000E51E0008E51E0008E51E0008E51E000844
:10009000E51E0008E51E0008E51E0008E51E000834
:1000A000E51E0008E51E0008E51E0008E51E000824
:1000B0008D1C0008E51E0008E51E0008E51E00086E
:1000C000E51E0008E51E0008E51E0008E51E000804
:1000D000E51E0008E51E0008E51E0008E51E0008F4
:1000E000A11C0008E51E0008E51E00080000000035
:1000F0000000000000000000000000000000000000
:0C01000000000000000000005FF808F1A3
:10010C0010B5054C237833B9044B13B10448AFF345
:10011C0000800123237010BD980000200000000017
:10012C00444A000808B5034B1BB103490348AFF31D
:10013C00008008BD000000009C000020444A00081C
:10014C00034613F8012B002AFBD1181A013870470B
:10015C0090B583B000AF0023FB716BE0FA79FB79AB
:10016C003849895C384AD154FA79FB793749895C2A
:10017C00344AD154FB79364A52F82320FB7935495D
:10018C0031F81330FC791946104602F0BFF90346DA
:10019C001A462E4B1A55FB792C4AD25CFB7929490D
:1001AC00CB5C9A4243D1FB79284AD25CFB79264935
:1001BC00CB5C9A423BD1FB79274AD25CFB79234931
:1001CC00CB5C9A4214D0FA79FB792049895C224A9B
:1001DC00D154FB79204AD35C002B28D1FB791F4AE0
:1001EC000121D154FB791E4AC82122F813101EE0BC
:1001FC00FB79194AD35C002B19D1FB79184A32F9D7
:10020C00132092B2013A92B211B2154A22F813108D
:10021C00FB79134A32F91330002B08DCFB790F4AB7
:10022C000121D154FB790E4A142122F81310FB79C9
:10023C000133FB71FB79032B90D900BF00BF0C3746
:10024C00BD4690BDBC000020C0000020B8000020BE
:10025C000000002010000020B4000020C40000208A
:10026C00C800002080B483B000AF0346FB71FB795B
:10027C00032B01D900230BE0FB79084AD35C012B3B
:10028C0005D1FB79054A0021D154012300E000235C
:10029C0018460C37BD4680BC704700BFC400002018
:1002AC0080B400AF0E4B1B680A2B05D90C4B1B6896
:1002BC000A3B0B4A136002E0094B00221A60084B00
:1002CC005B680A2B05D9064B5B680A3B044A5360F2
:1002DC0002E0034B00225A6000BFBD4680BC704751
:1002EC006C03002080B400AF044B00221A60034B57
:1002FC0000225A6000BFBD4680BC70476C030020D2
:10030C0080B500AF00220021024801F0D3F800BFF5
:10031C0080BD00BFF102000880B400AF00BFBD4635
:10032C0080BC704780B500AF0A220A21454801F015
:10033C00C1F803461A46444B1A700A22002143485E
:10034C0001F0B8F803461A463F4B5A70404B1A68F6
:10035C00404B1B681A44404B1B6813441A4600213F
:10036C003E4801F0A7F803461A46374B9A70384BB3
:10037C001968374B1A68374B1B681A44364B1B6885
:10038C0013441A46364801F095F803461A462E4B8C
:10039C00DA702F4B1A68304B1B68D1182C4B1A682B
:1003AC002C4B1B681A442C4B1B6813441A462D48C3
:1003BC0001F080F803461A46234B1A71244B1A6835
:1003CC00244B1B681A44244B1B6813441A46002107
:1003DC00254801F06FF803461A461B4B5A711E4B09
:1003EC0019681B4B1A681B4B1B681A441A4B1B6869
:1003FC0013441A461D4801F05DF803461A46124B89
:10040C009A71154B1A68134B1B68D118104B1A684C
:10041C00104B1B681A44104B1B6813441A461448A3
:10042C0001F048F803461A46074BDA714FF47A721A
:10043C000021104801F03EF803461A46024B1A728E
:10044C0000BF80BD25030008D8000020AD020008C5
:10045C00340000203C000020380000202D1E000835
:10046C003D1E00084D1E00087D1E00088D1E000854
:10047C006D1E0008290D000880B500AF0022002178
:10048C00044801F017F800220021034801F012F88B
:10049C0000BF80BD1D1E00085D1E000880B500AFAA
:1004AC000120FFF7DFFE0346002B1DD0214B1B78EC
:1004BC00032B12D0032B16DC012B02D0022B06D0FF
:1004CC0011E0002200211C4800F0F4FF0CE0002297
:1004DC0000211A4800F0EEFF06E000220021184827
:1004EC0000F0E8FF00E000BF0220FFF7BBFE034670
:1004FC00002B1DD00F4B5B78032B12D0032B16DC7B
:10050C00012B02D0022B06D011E0002200210D4855
:10051C0000F0D0FF0CE0002200210B4800F0CAFFD5
:10052C0006E000220021094800F0C4FF00E000BFF3
:10053C0000BF80BD680300203D1E00084D1E000852
:10054C002D1E00087D1E00088D1E00086D1E000863
:10055C0080B500AF0A220A210B4800F0ABFF03461E
:10056C001A460A4B1A7000220021094800F0A2FF1B
:10057C0000220021074800F09DFF002200210648C0
:10058C0000F098FF00BF80BDA9040008E400002023
:10059C002D1E00087D1E0008950D000880B400AFCC
:1005AC0000BFBD4680BC704780B500AF0120FFF78F
:1005BC0059FE0346002B00F0BA80AD4B5B78184611
:1005CC0001F07EF8AA4B9B78184601F079F8A84BFD
:1005DC00DB78184601F074F8A54B1B79184601F02E
:1005EC006FF8A44B1B78032B6DD0032B00F39E806C
:1005FC00012B02D0022B33D098E0002200219E4820
:10060C0000F058FF4FF47A7200219C4800F052FF22
:10061C0003461A46964B5A704FF47A72002198484A
:10062C0000F048FF03461A46914B9A704FF47A72C9
:10063C004FF4FA71934800F03DFF03461A468C4B79
:10064C00DA704FF47A724FF4FA718F4800F032FF7F
:10065C0003461A46864B1A71864B02221A7066E0C4
:10066C0000220021894800F025FF4FF47A72002106
:10067C00874800F01FFF03461A467D4B5A704FF413
:10068C007A720021834800F015FF03461A46784B16
:10069C009A704FF47A724FF4FA717A4800F00AFFAC
:1006AC0003461A46724BDA704FF47A724FF4FA71B1
:1006BC00754800F0FFFE03461A466D4B1A716D4BE0
:1006CC0003221A7033E000220021734800F0F2FE7E
:1006DC004FF47A720021714800F0ECFE03461A4682
:1006EC00634B5A704FF47A7200216D4800F0E2FEB1
:1006FC0003461A465E4B9A704FF47A724FF4FA71B5
:10070C00604800F0D7FE03461A46594BDA704FF496
:10071C007A724FF4FA715C4800F0CCFE03461A462C
:10072C00534B1A71534B01221A7000E000BF022088
:10073C00FFF798FD0346002B50D04E4B1B78032B34
:10074C0034D0032B49DC012B02D0022B17D044E010
:10075C00544B1B6844F63722934206D8514B1B6806
:10076C0003F57A734F4A136003E04E4B44F6206254
:10077C001A6000220021484800F09CFE2EE04A4BF3
:10078C001B6844F63722934206D8474B1B6803F587
:10079C007A73454A136003E0434B44F620621A60B7
:1007AC0000220021344800F085FE17E03F4B1B6807
:1007BC0044F63722934206D83C4B1B6803F57A73F8
:1007CC003A4A136003E0394B44F620621A60002267
:1007DC0000212E4800F06EFE00E000BF0320FFF762
:1007EC0041FD0346002B6ED0224B1B78032B32D0DD
:1007FC00032B67DC012B02D0022B16D062E0294BB5
:10080C001B68B3F5FA6F06D9264B1B68A3F57A73F0
:10081C00244A136003E0234B4FF47A721A600022CF
:10082C0000211D4800F046FE4DE01F4B1B68B3F540
:10083C00FA6F06D91C4B1B68A3F57A731A4A13601E
:10084C0003E0194B4FF47A721A60002200210A4817
:10085C0000F030FE37E0154B1B68B3F5FA6F27D963
:10086C00124B1B68A3F57A73104A136024E000BF87
:10087C00E8000020D1000020090E00083D1E0008F1
:10088C007D1E00081D1E00085D1E00085D0E000880
:10089C004D1E00088D1E0008B50D00082D1E000809
:1008AC006D1E000834000020380000203C000020A1
:1008BC00064B4FF47A721A6000220021044800F0B3
:1008CC00F9FD00E000BF00BF80BD00BF3C00002070
:1008DC005D0E000880B500AF0A220A211D4800F009
:1008EC00E9FD03461A461C4B1A701C4B01221A7068
:1008FC00002200211A4800F0DDFD4FF47A7200212D
:10090C00184800F0D7FD03461A46134B5A704FF4A3
:10091C007A720021144800F0CDFD03461A460E4BA6
:10092C009A704FF47A724FF4FA71104800F0C2FDCD
:10093C0003461A46084BDA704FF47A724FF4FA7188
:10094C000B4800F0B7FD03461A46034B1A7100BF63
:10095C0080BD00BFB5050008E8000020D1000020D4
:10096C00B50D00082D1E00086D1E00081D1E000888
:10097C005D1E000880B500AF044B00221A700022E7
:10098C000021034800F096FD00BF80BDD000002080
:10099C00F90C000880B582B000AF0020FFF762FCB4
:1009AC000346002B00F097804D4B1B78032B00F275
:1009BC008F8001A252F823F0D5090008050A00081F
:1009CC003F0A0008790A00080023FB7108E0FB7954
:1009DC00444AD35C184600F073FEFB790133FB717B
:1009EC00FB79002BF3D000220A213F4800F062FD76
:1009FC003B4B01221A706EE00023BB7108E0BB79FF
:100A0C003A4AD35C184600F05BFEBB790133BB71EC
:100A1C00BB790A2BF3D900220021354800F04AFD9E
:100A2C0000220A21334800F045FD2D4B02221A709A
:100A3C0051E000237B7108E07B792F4AD35C184688
:100A4C0000F03EFE7B7901337B717B79022BF3D96D
:100A5C0000220021294800F02DFD00220A212848FF
:100A6C0000F028FD1E4B03221A7034E000233B716A
:100A7C0008E03B79234AD35C184600F021FE3B7911
:100A8C0001333B713B79042BF3D9002200211E4822
:100A9C0000F010FD00220A21134800F00BFD104B52
:100AAC0001221A70194B1A68194B1B681A44194BFE
:100ABC001B689A420ED0174B41F288321A60134BC6
:100ACC0040F6B8321A60124B4FF4FA621A6001E029
:100ADC0000BF00E000BF00BF0837BD4680BD00BFAF
:100AEC00D0000020D400002031030008D8000020E2
:100AFC000D0300085D050008E400002085040008D3
:100B0C00E1080008E8000020A905000838000020D2
:100B1C003C0000203400002080B586B002AF0346B4
:100B2C00FB71FB7923F00F03FB73FB791B01BB7388
:100B3C00FB7B43F00C03DBB23B72FB7B43F0080303
:100B4C00DBB27B72BB7B43F00C03DBB2BB72BB7BB7
:100B5C0043F00803DBB2FB7207F108024FF0FF33DE
:100B6C00009304234221034801F07EFE00BF10379E
:100B7C00BD4680BDF000002080B586B002AF0346B4
:100B8C00FB71FB7923F00F03FB73FB791B01BB7328
:100B9C00FB7B43F00D03DBB23B72FB7B43F00903A1
:100BAC00DBB27B72BB7B43F00D03DBB2BB72BB7B56
:100BBC0043F00903DBB2FB7207F108024FF0FF337D
:100BCC00009304234221034801F04EFE00BF10376E
:100BDC00BD4680BDF000002080B500AF3320FFF78C
:100BEC009BFF3220FFF798FF322001F0D9F9282023
:100BFC00FFF792FF322001F0D3F90120FFF78CFFB1
:100C0C00322001F0CDF90620FFF786FF322001F0EB
:100C1C00C7F90C20FFF780FF322001F0C1F9022048
:100C2C00FFF77AFF322001F0BBF98020FFF774FF49
:100C3C0000BF80BD80B500AF0120FFF76DFF3220F3
:100C4C0001F0AEF900BF80BD80B582B000AF0346A5
:100C5C000A46FB711346BB71FB79002B06D1BB799D
:100C6C00803BDBB21846FFF757FF08E0FB79012BFE
:100C7C0005D1BB79403BDBB21846FFF74DFF00BFF7
:100C8C000837BD4680BD90B585B000AF78600023B5
:100C9C00FB7309E0FB7B7A6813441B781846FFF75B
:100CAC006BFFFB7B0133FB73FC7B7868FFF748FA27
:100CBC0003469C42EED300BF00BF1437BD4690BD27
:100CCC0080B584B000AF786007F108037A680649F4
:100CDC00184603F001FA07F108031846FFF7D3FF93
:100CEC0000BF1037BD4680BD5C4A000880B500AF20
:100CFC00FFF7A0FF02210020FFF7A6FF0548FFF732
:100D0C00C2FF05210120FFF79FFF0348FFF7BBFF40
:100D1C0000BF80BD604A0008704A000880B500AF73
:100D2C00FFF788FF00210020FFF78EFF1248FFF726
:100D3C00AAFF0B210020FFF787FF104B1B68104AFE
:100D4C00A2FB03239B091846FFF7BAFF00210120E1
:100D5C00FFF77AFF0B48FFF796FF0B210120FFF7F7
:100D6C0073FF064B5B68064AA2FB03239B091846DC
:100D7C00FFF7A6FF00BF80BD784A00086C03002077
:100D8C00D34D6210844A000880B500AFFFF752FFC4
:100D9C0000210020FFF758FF0248FFF774FF00BF47
:100DAC0080BD00BF904A000880B500AFFFF742FF3E
:100DBC0000210020FFF748FF0C48FFF764FF0021DB
:100DCC000120FFF741FF0A48FFF75DFF06210120D4
:100DDC00FFF73AFF074B1B68074AA2FB03239B094B
:100DEC001846FFF76DFF00BF80BD00BF9C4A00088E
:100DFC00AC4A000834000020D34D621080B500AF1F
:100E0C00FFF718FF00210020FFF71EFF0C48FFF72B
:100E1C003AFF00210120FFF717FF0A48FFF733FFC5
:100E2C0008210120FFF710FF074B1B68074AA2FBA4
:100E3C0003239B091846FFF743FF00BF80BD00BF8B
:100E4C009C4A0008B44A000838000020D34D6210B8
:100E5C0080B500AFFFF7EEFE00210020FFF7F4FE97
:100E6C000C48FFF710FF00210120FFF7EDFE0A48A8
:100E7C00FFF709FF09210120FFF7E6FE074B1B686E
:100E8C00074AA2FB03239B091846FFF719FF00BF73
:100E9C0080BD00BF9C4A0008BC4A00083C000020F2
:100EAC00D34D621080B500AF01F018F800F036F8A1
:100EBC0000F01AF900F0EEF800F0A0F800F070F86D
:100ECC00104802F089FC00F06BFA4FF4FA72002122
:100EDC000D4800F0EFFA0A2200210C4800F0EAFA63
:100EEC00002200210A4800F0E5FA002200210948FE
:100EFC0000F0E0FA0A220A21074800F0DBFA00F0C1
:100F0C00BFFAFCE744010020291D00085D01000820
:100F1C0081090008E50B0008A109000880B590B014
:100F2C0000AF07F1180328220021184603F0F4F84B
:100F3C003B1D00221A605A609A60DA601A61022323
:100F4C00BB610123BB621023FB6202237B63002382
:100F5C00BB634FF46013FB6307F11803184601F0F1
:100F6C00DBFF0346002B01D000F06BF90F237B60F5
:100F7C000223BB600023FB604FF480633B610023C2
:100F8C007B613B1D0221184602F048FA0346002BF8
:100F9C0001D000F056F900BF4037BD4680BD0000BF
:100FAC0080B500AF124B134A1A60114B124A5A60AB
:100FBC000F4B00229A600E4B0022DA600C4B4FF460
:100FCC0080421A610A4B00225A61094B00229A6135
:100FDC00074B0022DA61064B00221A62044801F02A
:100FEC00FFFA0346002B01D000F02BF900BF80BDA7
:100FFC00F000002000540040A086010080B586B0AF
:10100C0000AF07F1080300221A605A609A60DA6098
:10101C003B4600221A605A601D4B4FF080421A600A
:10102C001B4B09225A601A4B00229A60184B4FF640
:10103C00FF72DA60164B00221A61154B00229A617E
:10104C00134802F079FB0346002B01D000F0F9F8AD
:10105C004FF48053BB6007F1080319460C4802F0AB
:10106C00FDFC0346002B01D000F0EBF800233B60A5
:10107C0000237B603B461946054802F0DFFE034621
:10108C00002B01D000F0DDF800BF1837BD4680BD45
:10109C004401002080B500AF114B124A1A60104B6E
:1010AC004FF4E1325A600E4B00229A600C4B002236
:1010BC00DA600B4B00221A61094B0C225A61084B67
:1010CC0000229A61064B0022DA61054802F026FFE5
:1010DC000346002B01D000F0B4F800BF80BD00BF68
:1010EC008C0100200044004080B588B000AF07F1AF
:1010FC00100300221A605A609A60DA60444B9B69B4
:10110C00434A43F010039361414B9B6903F0100376
:10111C00FB60FB683E4B9B693D4A43F020039361A7
:10112C003B4B9B6903F02003BB60BB68384B9B694E
:10113C00374A43F004039361354B9B6903F0040376
:10114C007B607B68324B9B69314A43F008039361A7
:10115C002F4B9B6903F008033B603B680022332153
:10116C002C4801F0EAF9002201212B4801F0E5F9A5
:10117C004FF400533B61294B7B610023BB6107F1AA
:10118C0010031946264801F03DF833233B61012337
:10119C007B610023BB610223FB6107F1100319463D
:1011AC001C4801F02FF801233B6101237B610023D4
:1011BC00BB610223FB6107F110031946164801F0CD
:1011CC0021F84FF482633B6100237B610123BB61F7
:1011DC0007F110031946104801F014F84FF440734E
:1011EC003B6100237B610123BB6107F110031946AE
:1011FC00084801F007F800220021282000F0CBFF5E
:10120C00282000F0E4FF00BF2037BD4680BD00BFA2
:10121C000010024000080140000C014000001110B9
:10122C000010014080B582B000AF78607B681B680D
:10123C00B3F1804F01D100F0FDF800BF0837BD4677
:10124C0080BD80B400AF72B600BF00BFFDE70000E8
:10125C0080B582B000AF0346FB71FB790D4A52F8A2
:10126C002300FB790C4A32F813300022194601F0A6
:10127C0064F9FB79094A52F82300FB79084A32F8E1
:10128C0013300022194601F058F900BF0837BD464B
:10129C0080BD00BF1800002020000020240000208A
:1012AC002C00002080B582B000AF0346FB71FB79A7
:1012BC000D4A52F82300FB790C4A32F81330012204
:1012CC00194601F03AF9FB79094A52F82300FB79E7
:1012DC00084A32F813300122194601F02EF900BFEA
:1012EC000837BD4680BD00BF18000020200000203C
:1012FC00240000202C00002080B582B000AF0346F3
:10130C00FB71FB790D4A52F82300FB790C4A32F839
:10131C0013300122194601F010F9FB79094A52F8F1
:10132C002300FB79084A32F813300022194601F0E9
:10133C0004F900BF0837BD4680BD00BF180000206F
:10134C0020000020240000202C00002080B582B05A
:10135C0000AF0346FB71FB790D4A52F82300FB7971
:10136C000C4A32F813300022194601F0E6F8FB79EA
:10137C00094A52F82300FB79084A32F8133001224B
:10138C00194601F0DAF800BF0837BD4680BD00BF32
:10139C001800002020000020240000202C00002039
:1013AC0080B483B000AF0023FB7137E0FA79204999
:1013BC0013469B0013449B000B4400221A60FA79DD
:1013CC00FB79C3F11403D8B2194913469B0013449B
:1013DC009B000B44043302461A70FA7914491346E5
:1013EC009B0013449B000B44083300221A60FA79CB
:1013FC000F4913469B0013449B000B440C330022F3
:10140C001A60FA790A4913469B0013449B000B445B
:10141C00103300221A70FB790133FB71FB79132B0B
:10142C00C4D900BF00BF0C37BD4680BC704700BF9D
:10143C00D401002080B400AF104B1B68002B18D0D7
:10144C000E4B9B68002B0CD00C4B9B680A2B05D9C0
:10145C000A4B9B680A3B094A936002E0074B002247
:10146C009A60064B9B68002B04D1044B01221A7422
:10147C0000E000BFBD4680BC704700BFD401002017
:10148C0080B500AF0A4B1B7C002B0FD0084B1B68A0
:10149C009847074BDB68002B02D000F0AFF906E051
:1014AC00034B1B79184600F00BF900E000BF80BD20
:1014BC00D4010020B0B489B000AFF860B9607A6094
:1014CC007E4BD3F87C31002B01D00023F1E07B4B19
:1014DC0093F880317B760023FB610023FB76E3E0FD
:1014EC00FA7E764913469B0013449B000B44083349
:1014FC001B68FA691344FB61FA69BB689A420AD803
:10150C00FA7E6E4913469B0013449B000B441B68E8
:10151C00002B40F0C6801323BB7617E0BB7E5A1E0F
:10152C00B97E66480B469B000B449B0018446349EC
:10153C0013469B0013449B000B4404461D460FCDE1
:10154C000FC42B682360BB7E013BBB76BA7EFB7E4F
:10155C009A42E3D8FA7E594913469B0013449B00E8
:10156C000B44FA681A60FA7E544913469B001344E4
:10157C009B000B4404337A7E1A70FA7E4F49134653
:10158C009B0013449B000B440C337A681A60FA7E60
:10159C004A4913469B0013449B000B441033002212
:1015AC001A70FA69BB689A4250D9FA69BB68D31AA7
:1015BC007B61FB7E5A1C414913469B0013449B00E4
:1015CC000B44083319687B69FA7EC91A3B481346E9
:1015DC009B0013449B00034408331960FA7E37497F
:1015EC0013469B0013449B000B4408331B68002BD1
:1015FC0009D1FA7E314913469B0013449B000B44DE
:10160C00103301221A70FB7E5A1C79692B48134641
:10161C009B0013449B00034408331960FB7E5A1C47
:10162C00264913469B0013449B000B4408331B684C
:10163C00002B2CD1FB7E5A1C204913469B001344D3
:10164C009B000B44103301221A7020E0FA7EB9681B
:10165C00FB69C91A194813469B0013449B000344A9
:10166C0008331960FA7E154913469B0013449B00FE
:10167C000B4408331B68002B09D1FA7E0F49134623
:10168C009B0013449B000B44103301221A70FA7E0A
:10169C000A4913469B0013449B000B4404331B78EC
:1016AC0007E0FB7E0133FB76FB7E132B7FF618AF36
:1016BC00002318462437BD46B0BC7047D401002027
:1016CC00B0B485B000AF0346FB710023FB7388E018
:1016DC00FA7B494913469B0013449B000B441B683F
:1016EC00002B01D1002381E0FA7B434913469B0078
:1016FC0013449B000B4404331B78FA799A426DD146
:10170C00FA7B3D4913469B0013449B000B44043366
:10171C001B787B73FB7B5A1C374913469B00134485
:10172C009B000B441B68002B1DD0FB7B5A1C3249C1
:10173C0013469B0013449B000B4408331968FA7B37
:10174C002D4813469B0013449B00034408331B682D
:10175C00FA7B01321944284813469B0013449B0022
:10176C00034408331960FB7BBB7317E0BB7B5A1C2B
:10177C00B97B21480B469B000B449B0018441E4927
:10178C0013469B0013449B000B4404461D460FCD8F
:10179C000FC42B682360BB7B0133BB73BB7B122B49
:1017AC00E4D9154B0022C3F87C21134A7B7B82F8C9
:1017BC008031114B0022C3F884210F4B0022C3F857
:1017CC0088210D4B002283F88C210B4BD3F87C31F4
:1017DC00002B0CBF01230023DBB207E0FB7B0133A2
:1017EC00FB73FB7B132B7FF673AF00231846143768
:1017FC00BD46B0BC704700BFD4010020B0B489B066
:10180C0000AF964B1B68002B01D1002320E1934BBA
:10181C003C461D460FCD0FC42B6823600023FB6193
:10182C000023FB760FE1FB7E132B0AD0FB7E5A1CA8
:10183C008A4913469B0013449B000B441B68002BE6
:10184C004AD1FA7E3968854813469B0013449B00A5
:10185C0003441960FA7E3879804913469B0013447F
:10186C009B000B44043302461A70FA7EF9687B48DD
:10187C0013469B0013449B0003440C331960FA7EFF
:10188C00764913469B0013449B000B4410330022F3
:10189C001A70F968FA7EFB69C91A704813469B00E6
:1018AC0013449B00034408331960FA7E6B491346BA
:1018BC009B0013449B000B4408331B68002B09D17D
:1018CC00FA7E664913469B0013449B000B4410336D
:1018DC0001221A700123BBE0FB7E5A1C5F491346A0
:1018EC009B0013449B000B4408331B68FA69134498
:1018FC00FB61FB68FA699A4240F28D80FA7E396886
:10190C00564813469B0013449B0003441960FA7E0F
:10191C003879524913469B0013449B000B44043303
:10192C0002461A70FA7EF9684C4813469B00134421
:10193C009B0003440C331960FA7E484913469B0004
:10194C0013449B000B44103300221A70FB68FA6995
:10195C00D31A7B61FB7E5A1C404913469B001344EF
:10196C009B000B44083319687B69FA7EC91A3B4803
:10197C0013469B0013449B00034408331960FA7E02
:10198C00364913469B0013449B000B4408331B68D9
:10199C00002B09D1FA7E314913469B0013449B005E
:1019AC000B44103301221A70FB7E5A1C2B49134630
:1019BC009B0013449B000B4408331968FA7E27489C
:1019CC0013469B0013449B00034408331B68FA7EA8
:1019DC000132C91A214813469B0013449B0003444F
:1019EC0008331960FB7E5A1C1C4913469B00134498
:1019FC009B000B4408331B68002B0AD1FB7E5A1C3E
:101A0C00164913469B0013449B000B4410330122D0
:101A1C001A7001231CE0FB7E5A1CF97E0F480B4602
:101A2C009B000B449B0018440C4913469B00134429
:101A3C009B000B4404461D460FCD0FC42B6823603E
:101A4C00FB7E0133FB76FB7E132B7FF6ECAE002383
:101A5C0018462437BD46B0BC704700BFD4010020E7
:101A6C0080B485B000AF154B9B69144A43F0010359
:101A7C009361124B9B6903F00103BB60BB680F4B76
:101A8C00DB690E4A43F08053D3610C4BDB6903F0E6
:101A9C0080537B607B680A4B5B68FB60FB6823F0C0
:101AAC00E063FB60FB6843F00073FB60044AFB6877
:101ABC00536000BF1437BD4680BC70470010024015
:101ACC000000014080B58AB000AF786007F11403C4
:101ADC0000221A605A609A60DA607B681B681D4AA3
:101AEC00934232D11C4B9B691B4A43F00803936110
:101AFC00194B9B6903F008033B613B694FF440733E
:101B0C007B611223BB6103233B6207F1140319466B
:101B1C00124800F077FB124B5B687B627B6A43F0E8
:101B2C00E0637B627B6A43F002037B620C4A7B6A54
:101B3C005360094BDB69084A43F40013D361064B2D
:101B4C00DB6903F40013FB60FB6800BF2837BD465C
:101B5C0080BD00BF0054004000100240000C01404A
:101B6C000000014080B584B000AF78607B681B68D2
:101B7C00B3F1804F13D10C4BDB690B4A43F00103DB
:101B8C00D361094BDB6903F00103FB60FB680022A6
:101B9C0000211C2000F0FFFA1C2000F018FB00BFF5
:101BAC001037BD4680BD00BF0010024080B588B024
:101BBC0000AF786007F1100300221A605A609A6037
:101BCC00DA607B681B68154A934223D1144BDB699E
:101BDC00134A43F40033D361114BDB6903F4003334
:101BEC00FB60FB680E4B9B690D4A43F00403936149
:101BFC000B4B9B6903F00403BB60BB680C233B617C
:101C0C0002237B610223FB6107F11003194605488F
:101C1C0000F0F8FA00BF2037BD4680BD00440040FC
:101C2C00001002400008014080B400AF00BFFDE787
:101C3C0080B400AF00BFFDE780B400AF00BFFDE78C
:101C4C0080B400AF00BFFDE780B400AF00BFFDE77C
:101C5C0080B400AF00BFBD4680BC704780B400AFFD
:101C6C0000BFBD4680BC704780B400AF00BFBD460E
:101C7C0080BC704780B500AF00F076F900BF80BD26
:101C8C0080B500AF024801F0F9FD00BF80BD00BF78
:101C9C004401002080B500AF4FF4005000F07EFCF2
:101CAC0000BF80BD80B586B000AF7860144A154B7C
:101CBC00D31A7B617B693B61134B1B68002B02D1F0
:101CCC00114B124A1A60104B1A687B6813443A691C
:101CDC009A4207D202F028FA03460C221A604FF0FF
:101CEC00FF3309E0084B1B68FB60074B1A687B68E5
:101CFC001344054A1360FB6818461837BD4680BD6F
:101D0C00005000200004000064030020C0040020E8
:101D1C0080B400AF00BFBD4680BC704780B500AF3B
:101D2C002021024800F021FC00BF80BD00080140CA
:101D3C0080B582B000AF03460A46FB711346BB71F7
:101D4C00BB79032B4CD801A252F823F0691D000873
:101D5C007B1D0008A11D0008C71D0008FB79184653
:101D6C00FFF776FAFB79244A0021D1543FE0FB7946
:101D7C001846FFF797FAFB791F4A0121D1541F4BE4
:101D8C001B78012B2ED1FB791D4A12681D4941F895
:101D9C00232027E0FB791846FFF7AEFAFB79164AA9
:101DAC000221D154154B1B78012B1DD1FB79164AFE
:101DBC001268144941F8232016E0FB791846FFF706
:101DCC00C5FAFB790C4A0321D1540C4B1B78012B1F
:101DDC000CD1FB790D4A12680A4941F8232005E021
:101DEC0000BF04E000BF02E000BF00E000BF00BF86
:101DFC000837BD4680BD00BF68030020D00000201E
:101E0C00340000206C030020380000203C0000202F
:101E1C0080B500AF00210020FFF78AFF00BF80BD16
:101E2C0080B500AF01210020FFF782FF00BF80BD0D
:101E3C0080B500AF02210020FFF77AFF00BF80BD04
:101E4C0080B500AF03210020FFF772FF00BF80BDFB
:101E5C0080B500AF00210120FFF76AFF00BF80BDF5
:101E6C0080B500AF01210120FFF762FF00BF80BDEC
:101E7C0080B500AF02210120FFF75AFF00BF80BDE3
:101E8C0080B500AF03210120FFF752FF00BF80BDDA
:101E9C00FFF73EFF0B480C490C4A002302E0D458D4
:101EAC00C4500433C4188C42F9D3094A094C00239A
:101EBC0001E013600432A242FBD302F03BF9FEF7BF
:101ECC00F1FF70470000002098000020384B0008FC
:101EDC0098000020C0040020FEE7000080B500AF91
:101EEC00084B1B68074A43F010031360032000F0F3
:101EFC0047F9002000F008F8FFF7B2FD0023184660
:101F0C0080BD00BF0020024080B582B000AF786079
:101F1C00124B1A68124B1B7819464FF47A73B3FBA9
:101F2C00F1F3B2FBF3F3184600F05FF90346002B14
:101F3C0001D001230EE07B680F2B0AD800227968B0
:101F4C004FF0FF3000F027F9064A7B68136000233E
:101F5C0000E0012318460837BD4680BD3000002044
:101F6C00440000204000002080B400AF054B1B78DB
:101F7C001A46054B1B681344034A136000BFBD4649
:101F8C0080BC7047440000207403002080B400AF74
:101F9C00024B1B681846BD4680BC7047740300207A
:101FAC0080B584B000AF7860FFF7F0FFB8607B6855
:101FBC00FB60FB68B3F1FF3F05D00A4B1B781A4658
:101FCC00FB681344FB6000BFFFF7E0FF0246BB68F1
:101FDC00D31AFA689A42F7D800BF00BF1037BD4633
:101FEC0080BD00BF4400002080B485B000AF786095
:101FFC007B6803F00703FB600C4BDB68BB60BA68C3
:10200C004FF6FF031340BB60FB681A02BB68134317
:10201C0043F0BF6343F40033BB60044ABB68D36036
:10202C0000BF1437BD4680BC704700BF00ED00E018
:10203C0080B400AF044BDB681B0A03F0070318469F
:10204C00BD4680BC704700BF00ED00E080B483B09B
:10205C0000AF0346FB7197F90730002B0BDBFB79C4
:10206C0003F01F02064997F907305B09012000FABB
:10207C0002F241F8232000BF0C37BD4680BC7047EC
:10208C0000E100E080B483B000AF03463960FB711F
:10209C0097F90730002B0ADB3B68DAB20C4997F949
:1020AC0007301201D2B20B4483F800230AE03B68DC
:1020BC00DAB20849FB7903F00F03043B1201D2B2E8
:1020CC000B441A7600BF0C37BD4680BC704700BF6E
:1020DC0000E100E000ED00E080B489B000AFF860F2
:1020EC00B9607A60FB6803F00703FB61FB69C3F11D
:1020FC000703042B28BF0423BB61FB690433062BA5
:10210C0002D9FB69033B00E000237B614FF0FF32F7
:10211C00BB6902FA03F3DA43BB681A407B699A4045
:10212C004FF0FF317B6901FA03F3D9437B680B4015
:10213C00134318462437BD4680BC704780B582B027
:10214C0000AF78607B68013BB3F1807F01D3012342
:10215C000FE00A4A7B68013B53600F214FF0FF30C0
:10216C00FFF790FF054B00229A60044B07221A6080
:10217C00002318460837BD4680BD00BF10E000E0C4
:10218C0080B582B000AF78607868FFF72DFF00BF94
:10219C000837BD4680BD80B586B000AF0346B96038
:1021AC007A60FB7300237B61FFF742FF78617A68EA
:1021BC00B9687869FFF790FF024697F90F3011461E
:1021CC001846FFF75FFF00BF1837BD4680BD80B5CE
:1021DC0082B000AF0346FB7197F907301846FFF742
:1021EC0035FF00BF0837BD4680BD80B582B000AF5B
:1021FC0078607868FFF7A2FF034618460837BD469B
:10220C0080BD000080B48BB000AF786039600023D3
:10221C007B6200233B6269E101227B6A02FA03F3D1
:10222C00FB613B681B68FA691340BB61BA69FB69C7
:10223C009A4240F058813B685B689A4A93425ED060
:10224C00984A934275D8984A934258D0964A9342EA
:10225C006FD8964A934252D0944A934269D8944A82
:10226C0093424CD0924A934263D8924A934246D0BE
:10227C00904A93425DD8122B2AD8122B59D801A21E
:10228C0052F823F00B230008E5220008F72200087F
:10229C00392300083F2300083F2300083F23000890
:1022AC003F2300083F2300083F2300083F2300087A
:1022BC003F2300083F2300083F2300083F2300086A
:1022CC003F2300083F230008ED22000801230008EB
:1022DC00794A934213D02CE03B68DB683B6229E0DF
:1022EC003B68DB6804333B6224E03B68DB68083303
:1022FC003B621FE03B68DB680C333B621AE03B68D7
:10230C009B68002B02D104233B6213E03B689B6863
:10231C00012B05D108233B627B68FA691A6109E03D
:10232C0008233B627B68FA695A6103E000233B6235
:10233C0000E000BFBB69FF2B01D87B6801E07B6824
:10234C0004337B61BB69FF2B02D87B6A9B0002E0E4
:10235C007B6A083B9B003B617B691A680F213B69D8
:10236C0001FA03F3DB431A40396A3B6901FA03F3C0
:10237C001A437B691A603B685B6803F08053002B3F
:10238C0000F0B1804D4B9B694C4A43F001039361C3
:10239C004A4B9B6903F00103BB60BB68484A7B6AEC
:1023AC009B08023352F82330FB607B6A03F0030373
:1023BC009B000F2202FA03F3DB43FA681340FB6025
:1023CC007B68404A934213D07B683F4A93420DD0BE
:1023DC007B683E4A934207D07B683D4A934201D1C9
:1023EC00032306E0042304E0022302E0012300E0BF
:1023FC0000237A6A02F0030292009340FA681343B6
:10240C00FB602F497B6A9B080233FA6841F8232052
:10241C003B685B6803F48013002B06D02D4B9A6845
:10242C002C49BB6913438B6006E02A4B9A68BB6945
:10243C00DB43284913408B603B685B6803F4001353
:10244C00002B06D0234BDA682249BB691343CB60BF
:10245C0006E0204BDA68BB69DB431E491340CB60B6
:10246C003B685B6803F40033002B06D0194B5A68A9
:10247C001849BB6913434B6006E0164B5A68BB699D
:10248C00DB43144913404B603B685B6803F48033B7
:10249C00002B21D00F4B1A680E49BB6913430B60FC
:1024AC0021E000BF000032100000311000002210AB
:1024BC00000021100000121000001110001002404A
:1024CC000000014000080140000C014000100140D8
:1024DC0000140140000401400B4B1A68BB69DB433C
:1024EC00094913400B607B6A01337B623B681A68B5
:1024FC007B6A22FA03F3002B7FF48EAE00BF00BF81
:10250C002C37BD4680BC70470004014080B485B0B8
:10251C0000AF78600B467B807B689A687B881340A1
:10252C00002B02D00123FB7301E00023FB73FB7B28
:10253C0018461437BD4680BC704780B483B000AFDA
:10254C0078600B467B8013467B707B78002B03D026
:10255C007A887B681A6103E07B881A047B681A61AD
:10256C0000BF0C37BD4680BC704780B485B000AF4F
:10257C0078600B467B807B68DB68FB607A88FB6845
:10258C0013401A04FB68D9437B880B401A437B68C1
:10259C001A6100BF1437BD4680BC704780B582B04D
:1025AC0000AF0346FB80084B5A69FB881340002B95
:1025BC0006D0054AFB885361FB88184600F006F8E4
:1025CC0000BF0837BD4680BD0004014080B483B015
:1025DC0000AF0346FB8000BF0C37BD4680BC704784
:1025EC0080B584B000AF78607B68002B01D10123EB
:1025FC002BE17B6893F83D30DBB2002B06D17B6876
:10260C00002283F83C207868FFF75CFA7B68242270
:10261C0083F83D207B681B681A687B681B6822F076
:10262C0001021A607B681B681A687B681B6842F49D
:10263C0000421A607B681B681A687B681B6822F46E
:10264C0000421A6001F032F8F8607B685B68814ADE
:10265C00934207D8FB68804A934294BF012300231E
:10266C00DBB206E0FB687D4A934294BF0123002352
:10267C00DBB2002B01D00123E7E0FB68784AA2FB18
:10268C0003239B0CBB607B681B685B6823F03F01DA
:10269C007B681B68BA680A435A607B681B681B6AB4
:1026AC0023F03F017B685B686A4A934202D8BB689F
:1026BC00013309E0BB684FF4967202FB03F3694ADD
:1026CC00A2FB03239B0901337A6812680B43136244
:1026DC007B681B68DB6923F44F4222F0FF027B68A6
:1026EC005B685C498B4219D8FB68591E7B685B6838
:1026FC005B00B1FBF3F3591C40F6FC730B40002B51
:10270C000AD0FB68591E7B685B685B00B1FBF3F376
:10271C000133C3F30B0351E004234FE07B689B6848
:10272C00002B11D1FB68581E7B6859680B465B0067
:10273C000B44B0FBF3F30133C3F30B03002B0CBFBF
:10274C0001230023DBB212E0FB68581E7B6859683A
:10275C000B469B000B4499000B44B0FBF3F3013385
:10276C00C3F30B03002B0CBF01230023DBB2002BA4
:10277C0001D0012322E07B689B68002B0ED1FB6803
:10278C00581E7B6859680B465B000B44B0FBF3F397
:10279C000133C3F30B0343F400430FE0FB68581EF3
:1027AC007B6859680B469B000B4499000B44B0FBAB
:1027BC00F3F30133C3F30B0343F440437968096823
:1027CC001343CB617B681B681B6823F0C0017B68DB
:1027DC00DA697B681B6A1A437B681B680A431A60B8
:1027EC007B681B689B6823F4034323F0FF037A6820
:1027FC0011697A68D26811437A6812680B43936046
:10280C007B681B68DB6823F0FF017B685A697B6877
:10281C009B691A437B681B680A43DA607B681B68F8
:10282C001A687B681B6842F001021A607B68002200
:10283C001A647B68202283F83D207B6800221A638F
:10284C007B68002283F83E20002318461037BD46D3
:10285C0080BD00BFA08601007F841E00FF083D00E4
:10286C0083DE1B43D34D621080B588B002AFF86095
:10287C007A601A460B467B8113463B81FFF786FB39
:10288C007861FB6893F83D30DBB2202B40F0E080A0
:10289C007B690093192301227049F86800F064F9F0
:1028AC000346002B01D00223D3E0FB6893F83C30A5
:1028BC00012B01D10223CCE0FB68012283F83C20E0
:1028CC00FB681B681B6803F00103012B07D0FB6836
:1028DC001B681A68FB681B6842F001021A60FB68EF
:1028EC001B681A68FB681B6822F400621A60FB689C
:1028FC00212283F83D20FB68102283F83E20FB68E0
:10290C0000221A64FB687A685A62FB683A895A8515
:10291C00FB685B8D9AB2FB681A85FB68504ADA62D9
:10292C0079897B693A6AF86800F09CF80346002BB9
:10293C0001D001238DE000233B61FB681B685B69C0
:10294C003B61FB681B689B693B613B6966E07A698C
:10295C00396AF86800F022FA0346002B0DD0FB68A8
:10296C001B6C042B07D1FB681B681A68FB681B687F
:10297C0042F400721A6001236BE0FB685B6A1A7800
:10298C00FB681B681A61FB685B6A5A1CFB685A621D
:10299C00FB685B8D9BB2013B9AB2FB685A85FB6866
:1029AC001B8D013B9AB2FB681A85FB681B685B693F
:1029BC0003F00403042B1BD1FB681B8D002B17D0D9
:1029CC00FB685B6A1A78FB681B681A61FB685B6AB8
:1029DC005A1CFB685A62FB685B8D9BB2013B9AB236
:1029EC00FB685A85FB681B8D013B9AB2FB681A8504
:1029FC007A69396AF86800F019FA0346002B0DD091
:102A0C00FB681B6C042B07D1FB681B681A68FB68FE
:102A1C001B6842F400721A6001231AE0FB681B8DDC
:102A2C00002B94D1FB681B681A68FB681B6842F486
:102A3C0000721A60FB68202283F83D20FB6800229C
:102A4C0083F83E20FB68002283F83C20002300E042
:102A5C00022318461837BD4680BD00BF0200100087
:102A6C000000FFFF80B588B002AFF8607A603B6071
:102A7C000B467B81FB68DB6A7B617B69082B06D08C
:102A8C007B69012B03D07B6913F5803F08D1FB6870
:102A9C001B681A68FB681B6842F480721A600BE0B2
:102AAC00FB681B6B122B07D1FB681B681A68FB6851
:102ABC001B6842F480721A603B6800937B680022AA
:102ACC004FF00111F86800F04FF80346002B0DD0C1
:102ADC00FB681B681B6803F48073B3F5807F03D11C
:102AEC00FB684FF400721A64032335E0FB681B6922
:102AFC00B3F5804F08D17B89DBB21A46FB681B68A3
:102B0C0002F0FE021A611BE07B89DB11DBB203F0E1
:102B1C000603DBB263F00F03DAB2FB681B681A61C1
:102B2C003B687A680E49F86800F098F80346002B69
:102B3C0001D0012310E07B89DAB2FB681B681A61B3
:102B4C003B687A680749F86800F088F80346002B60
:102B5C0001D0012300E0002318461837BD4680BD84
:102B6C00080001000200010080B584B000AFF860DD
:102B7C00B9603B601346FB7148E03B68B3F1FF3F23
:102B8C0044D0FFF703FA0246BB69D31A3A689A425B
:102B9C0002D33B68002B39D1BB681B0CDBB2012B79
:102BAC000DD1FB681B685B69DA43BB6813409BB2B1
:102BBC00002B0CBF01230023DBB21A460CE0FB6890
:102BCC001B689B69DA43BB6813409BB2002B0CBF9C
:102BDC0001230023DBB21A46FB799A4216D1FB681B
:102BEC0000221A63FB68202283F83D20FB68002238
:102BFC0083F83E20FB681B6C43F02002FB681A64D0
:102C0C00FB68002283F83C20012323E0BB681B0CEB
:102C1C00DBB2012B0DD1FB681B685B69DA43BB6827
:102C2C0013409BB2002B0CBF01230023DBB21A46CE
:102C3C000CE0FB681B689B69DA43BB6813409BB2D2
:102C4C00002B0CBF01230023DBB21A46FB799A42FE
:102C5C0093D0002318461037BD4680BD80B584B094
:102C6C0000AFF860B9607A603B6071E0FB681B688C
:102C7C005B6903F48063B3F5806F23D1FB681B6839
:102C8C001A68FB681B6842F400721A60FB681B68C8
:102C9C006FF480625A61FB6800221A63FB68202281
:102CAC0083F83D20FB68002283F83E20FB681B6CF8
:102CBC0043F00402FB681A64FB68002283F83C2092
:102CCC00012367E07B68B3F1FF3F41D0FFF75EF96A
:102CDC0002463B68D31A7A689A4202D37B68002B6F
:102CEC0036D1BB681B0CDBB2012B0CD1FB681B680B
:102CFC005B69DA43BB6813409BB2002B14BF012302
:102D0C000023DBB20BE0FB681B689B69DA43BB68F2
:102D1C0013409BB2002B14BF01230023DBB2002B0A
:102D2C0016D0FB6800221A63FB68202283F83D2032
:102D3C00FB68002283F83E20FB681B6C43F02002EA
:102D4C00FB681A64FB68002283F83C20012321E015
:102D5C00BB681B0CDBB2012B0CD1FB681B685B69DD
:102D6C00DA43BB6813409BB2002B14BF0123002332
:102D7C00DBB20BE0FB681B689B69DA43BB68134052
:102D8C009BB2002B14BF01230023DBB2002B7FF47A
:102D9C006DAF002318461037BD4680BD80B584B09A
:102DAC0000AFF860B9607A6034E0F86800F086F83B
:102DBC000346002B01D0012334E0BB68B3F1FF3F85
:102DCC0028D0FFF7E3F802467B68D31ABA689A4218
:102DDC0002D3BB68002B1DD1FB681B685B6903F039
:102DEC008003802B16D0FB6800221A63FB6820221C
:102DFC0083F83D20FB68002283F83E20FB681B6CA7
:102E0C0043F02002FB681A64FB68002283F83C2024
:102E1C00012307E0FB681B685B6903F08003802BD0
:102E2C00C3D1002318461037BD4680BD80B584B091
:102E3C0000AFF860B9607A6034E0F86800F03EF8F2
:102E4C000346002B01D0012334E0BB68B3F1FF3FF4
:102E5C0028D0FFF79BF802467B68D31ABA689A42CF
:102E6C0002D3BB68002B1DD1FB681B685B6903F0A8
:102E7C000403042B16D0FB6800221A63FB68202283
:102E8C0083F83D20FB68002283F83E20FB681B6C16
:102E9C0043F02002FB681A64FB68002283F83C2094
:102EAC00012307E0FB681B685B6903F00403042B38
:102EBC00C3D1002318461037BD4680BD80B483B003
:102ECC0000AF78607B681B685B6903F48063B3F5C3
:102EDC00806F1BD17B681B686FF480625A617B68C2
:102EEC0000221A637B68202283F83D207B68002235
:102EFC0083F83E207B681B6C43F004027B681A64E9
:102F0C007B68002283F83C20012300E00023184654
:102F1C000C37BD4680BC704780B586B000AF78607A
:102F2C007B68002B01D1012372E27B681B6803F0E4
:102F3C000103002B00F08780924B5B6803F00C03BD
:102F4C00042B0CD08F4B5B6803F00C03082B12D1B5
:102F5C008C4B5B6803F48033B3F5803F0BD1894B0A
:102F6C001B6803F40033002B6CD07B685B68002B70
:102F7C0068D101234CE27B685B68B3F5803F06D1D6
:102F8C00804B1B687F4A43F4803313602EE07B68D0
:102F9C005B68002B0CD17B4B1B687A4A23F4803383
:102FAC001360784B1B68774A23F4802313601DE071
:102FBC007B685B68B3F5A02F0CD1724B1B68714A10
:102FCC0043F4802313606F4B1B686E4A43F48033C9
:102FDC0013600BE06B4B1B686A4A23F4803313605D
:102FEC00684B1B68674A23F4802313607B685B681B
:102FFC00002B13D0FEF7CAFF386108E0FEF7C6FFBE
:10300C0002463B69D31A642B01D9032300E25D4BC2
:10301C001B6803F40033002BF0D014E0FEF7B6FF6E
:10302C00386108E0FEF7B2FF02463B69D31A642B05
:10303C0001D90323ECE1534B1B6803F40033002B41
:10304C00F0D100E000BF7B681B6803F00203002B8B
:10305C0063D04C4B5B6803F00C03002B0BD0494B3B
:10306C005B6803F00C03082B1CD1464B5B6803F424
:10307C008033002B16D1434B1B6803F00203002B4B
:10308C0005D07B681B69012B01D00123C0E13D4BAE
:10309C001B6823F0F8027B685B69DB00394913433A
:1030AC000B603AE07B681B69002B20D0364B012269
:1030BC001A60FEF76BFF386108E0FEF767FF024607
:1030CC003B69D31A022B01D90323A1E12D4B1B68B9
:1030DC0003F00203002BF0D02A4B1B6823F0F802FC
:1030EC007B685B69DB00274913430B6015E0264BBB
:1030FC0000221A60FEF74AFF386108E0FEF746FF2F
:10310C0002463B69D31A022B01D9032380E11D4BE4
:10311C001B6803F00203002BF0D17B681B6803F0E3
:10312C000803002B3AD07B689B69002B19D0174BF6
:10313C0001221A60FEF72AFF386108E0FEF726FF2D
:10314C0002463B69D31A022B01D9032360E10D4BD4
:10315C005B6A03F00203002BF0D0012000F0CEFAE2
:10316C001CE00A4B00221A60FEF710FF38610FE0DA
:10317C00FEF70CFF02463B69D31A022B08D9032336
:10318C0046E100BF0010024000004242800442426F
:10319C00924B5B6A03F00203002BE9D17B681B683E
:1031AC0003F00403002B00F0A6800023FB758B4B6F
:1031BC00DB6903F08053002B0DD1884BDB69874A08
:1031CC0043F08053D361854BDB6903F08053BB60C4
:1031DC00BB680123FB75824B1B6803F48073002BC7
:1031EC0018D17F4B1B687E4A43F480731360FEF743
:1031FC00CDFE386108E0FEF7C9FE02463B69D31AE2
:10320C00642B01D9032303E1754B1B6803F4807312
:10321C00002BF0D07B68DB68012B06D16F4B1B6A4F
:10322C006E4A43F0010313622DE07B68DB68002BD0
:10323C000CD16A4B1B6A694A23F001031362674B7A
:10324C001B6A664A23F0040313621CE07B68DB688C
:10325C00052B0CD1614B1B6A604A43F004031362CB
:10326C005E4B1B6A5D4A43F0010313620BE05B4B40
:10327C001B6A5A4A23F001031362584B1B6A574AC4
:10328C0023F0040313627B68DB68002B15D0FEF778
:10329C007DFE38610AE0FEF779FE02463B69D31ADF
:1032AC0041F28832934201D90323B1E04B4B1B6AA4
:1032BC0003F00203002BEED014E0FEF767FE38613A
:1032CC000AE0FEF763FE02463B69D31A41F28832EC
:1032DC00934201D903239BE0404B1B6A03F002038A
:1032EC00002BEED1FB7D012B05D13C4BDB693B4A1E
:1032FC0023F08053D3617B68DB69002B00F087805F
:10330C00364B5B6803F00C03082B61D07B68DB69E0
:10331C00022B46D1334B00221A60FEF737FE386180
:10332C0008E0FEF733FE02463B69D31A022B01D9A3
:10333C0003236DE0294B1B6803F00073002BF0D1C5
:10334C007B681B6AB3F5803F08D1244B5B6823F480
:10335C0000327B689B68214913434B601F4B5B68B1
:10336C0023F474127B68196A7B685B6A0B431B49F4
:10337C0013434B601B4B01221A60FEF707FE3861AA
:10338C0008E0FEF703FE02463B69D31A022B01D973
:10339C0003233DE0114B1B6803F00073002BF0D0AE
:1033AC0035E0104B00221A60FEF7F0FD386108E0A2
:1033BC00FEF7ECFD02463B69D31A022B01D903231D
:1033CC0026E0064B1B6803F00073002BF0D11EE0C7
:1033DC007B68DB69012B07D1012319E00010024047
:1033EC0000700040600042420B4B5B68FB60FB6866
:1033FC0003F480327B681B6A9A4206D1FB6803F4A3
:10340C0070127B685B6A9A4201D0012300E00023B2
:10341C0018461837BD4680BD0010024080B584B0F8
:10342C0000AF786039607B68002B01D10123D0E0BC
:10343C006A4B1B6803F007033A689A4210D9674B32
:10344C001B6823F0070265493B6813430B60634B11
:10345C001B6803F007033A689A4201D00123B8E0D5
:10346C007B681B6803F00203002B20D07B681B6871
:10347C0003F00403002B05D0594B5B68584A43F406
:10348C00E06353607B681B6803F00803002B05D0D6
:10349C00534B5B68524A43F460535360504B5B6828
:1034AC0023F0F0027B689B684D4913434B607B68AB
:1034BC001B6803F00103002B40D07B685B68012B79
:1034CC0007D1474B1B6803F40033002B15D10123A4
:1034DC007FE07B685B68022B07D1414B1B6803F0D4
:1034EC000073002B09D1012373E03D4B1B6803F0E3
:1034FC000203002B01D101236BE0394B5B6823F0F5
:10350C0003027B685B68364913434B60FEF73EFD54
:10351C00F8600AE0FEF73AFD0246FB68D31A41F266
:10352C008832934201D9032353E02D4B5B6803F09F
:10353C000C027B685B689B009A42EBD1274B1B68A3
:10354C0003F007033A689A4210D2244B1B6823F00D
:10355C00070222493B6813430B60204B1B6803F0A6
:10356C0007033A689A4201D0012332E07B681B685A
:10357C0003F00403002B08D0194B5B6823F4E062C2
:10358C007B68DB68164913434B607B681B6803F050
:10359C000803002B09D0124B5B6823F460527B6844
:1035AC001B69DB000E4913434B6000F021F8024607
:1035BC000B4B5B681B0903F00F030A49CB5C22FA27
:1035CC0003F3094A1360094B1B681846FEF79CFC71
:1035DC00002318461037BD4680BD00BF00200240B6
:1035EC0000100240C84A00083000002040000020B3
:1035FC0080B487B000AF0023FB600023BB600023C6
:10360C007B6100237B6000233B611E4B5B68FB608E
:10361C00FB6803F00C03042B02D0082B03D027E02B
:10362C00194B3B6127E0FB689B0C03F00F03174A17
:10363C00D35C7B60FB6803F48033002B10D0114B00
:10364C005B685B0C03F00103114AD35CBB607B68C5
:10365C000D4A03FB02F2BB68B2FBF3F37B6104E09F
:10366C007B680C4A02FB03F37B617B693B6102E0E4
:10367C00054B3B6100BF3B6918461C37BD4680BCFF
:10368C00704700BF0010024000127A00E04A0008A8
:10369C00F04A000800093D0080B400AF024B1B68E3
:1036AC001846BD4680BC70473000002080B500AF86
:1036BC00FFF7F2FF0246054B5B681B0A03F007039A
:1036CC000349CB5C22FA03F3184680BD001002407C
:1036DC00D84A000880B500AFFFF7DEFF0246054B65
:1036EC005B68DB0A03F007030349CB5C22FA03F3A4
:1036FC00184680BD00100240D84A000880B485B03E
:10370C0000AF78600A4B1B680A4AA2FB03235B0AD2
:10371C007A6802FB03F3FB6000BFFB685A1EFA6079
:10372C00002BF9D100BF00BF1437BD4680BC7047D9
:10373C0030000020D34D621080B582B000AF7860AD
:10374C007B68002B01D1012341E07B6893F83D306D
:10375C00DBB2002B06D17B68002283F83C20786812
:10376C00FEF700FA7B68022283F83D207B681A681A
:10377C007B6804331946104600F05CFA7B68012222
:10378C0083F846207B68012283F83E207B68012267
:10379C0083F83F207B68012283F840207B6801225C
:1037AC0083F841207B68012283F842207B68012248
:1037BC0083F843207B68012283F844207B68012234
:1037CC0083F845207B68012283F83D2000231846AE
:1037DC000837BD4680BD000080B485B000AF78606E
:1037EC007B6893F83D30DBB2012B01D001233AE02A
:1037FC007B68022283F83D207B681B68DA687B6853
:10380C001B6842F00102DA607B681B68184A93421D
:10381C000ED07B681B68B3F1804F09D07B681B68A6
:10382C00144A934204D07B681B68134A934211D10B
:10383C007B681B689B6803F00703FB60FB68062B27
:10384C0010D07B681B681A687B681B6842F0010209
:10385C001A6007E07B681B681A687B681B6842F07B
:10386C0001021A60002318461437BD4680BC70470D
:10387C00002C0140000400400008004080B584B0DA
:10388C0000AF78607B681B68DB68FB607B681B683B
:10389C001B69BB60BB6803F00203002B20D0FB68E4
:1038AC0003F00203002B1BD07B681B686FF0020235
:1038BC001A617B6801221A777B681B689B6903F08D
:1038CC000303002B03D0786800F098F905E07868C2
:1038DC0000F08BF9786800F09AF97B6800221A776F
:1038EC00BB6803F00403002B20D0FB6803F0040337
:1038FC00002B1BD07B681B686FF004021A617B687D
:10390C0002221A777B681B689B6903F44073002BB7
:10391C0003D0786800F072F905E0786800F065F97A
:10392C00786800F074F97B6800221A77BB6803F0A2
:10393C000803002B20D0FB6803F00803002B1BD0DE
:10394C007B681B686FF008021A617B6804221A7787
:10395C007B681B68DB6903F00303002B03D07868DA
:10396C0000F04CF905E0786800F03FF9786800F059
:10397C004EF97B6800221A77BB6803F01003002B0A
:10398C0020D0FB6803F01003002B1BD07B681B6856
:10399C006FF010021A617B6808221A777B681B682B
:1039AC00DB6903F44073002B03D0786800F026F930
:1039BC0005E0786800F019F9786800F028F97B6860
:1039CC0000221A77BB6803F00103002B0CD0FB68B4
:1039DC0003F00103002B07D07B681B686FF001021A
:1039EC001A617868FDF71EFCBB6803F08003002B9E
:1039FC000CD0FB6803F08003002B07D07B681B689E
:103A0C006FF080021A61786800F07FFABB6803F0EF
:103A1C004003002B0CD0FB6803F04003002B07D0B5
:103A2C007B681B686FF040021A61786800F0F8F848
:103A3C00BB6803F02003002B0CD0FB6803F02003C1
:103A4C00002B07D07B681B686FF020021A61786826
:103A5C0000F052FA00BF1037BD4680BD80B584B06F
:103A6C0000AF786039600023FB737B6893F83C30BF
:103A7C00012B01D10223B4E07B68012283F83C20A6
:103A8C007B68022283F83D207B681B689B68BB60C7
:103A9C00BB6823F07703BB60BB6823F47F43BB6038
:103AAC007B681B68BA689A603B681B68B3F5005F5B
:103ABC003ED0B3F5005F00F28780B3F5805F00F075
:103ACC008680B3F5805F7FD8702B1AD0702B7BD893
:103ADC00602B50D0602B77D8502B3CD0502B73D808
:103AEC00402B58D0402B6FD8302B64D0302B6BD858
:103AFC00202B60D0202B67D8002B5CD0102B5AD0F9
:103B0C0062E07B6818683B6899683B685A683B6858
:103B1C00DB6800F074F97B681B689B68BB60BB6852
:103B2C0043F07703BB607B681B68BA689A604FE010
:103B3C007B6818683B6899683B685A683B68DB6827
:103B4C0000F05DF97B681B689A687B681B6842F41F
:103B5C0080429A603CE07B6818683B6859683B6817
:103B6C00DB681A4600F0D4F87B681B6850211846B5
:103B7C0000F02BF92CE07B6818683B6859683B68AF
:103B8C00DB681A4600F0F2F87B681B686021184667
:103B9C0000F01BF91CE07B6818683B6859683B68AF
:103BAC00DB681A4600F0B4F87B681B6840211846A5
:103BBC0000F00BF90CE07B681A683B681B6819462F
:103BCC00104600F002F903E00123FB7300E000BF94
:103BDC007B68012283F83D207B68002283F83C201F
:103BEC00FB7B18461037BD4680BD80B483B000AF58
:103BFC00786000BF0C37BD4680BC704780B483B082
:103C0C0000AF786000BF0C37BD4680BC704780B4F5
:103C1C0083B000AF786000BF0C37BD4680BC7047E6
:103C2C0080B483B000AF786000BF0C37BD4680BC59
:103C3C007047000080B485B000AF786039607B6855
:103C4C001B68FB607B682F4A93420BD07B68B3F1F7
:103C5C00804F07D07B682C4A934203D07B682B4A59
:103C6C00934208D1FB6823F07003FB603B685B68F0
:103C7C00FA681343FB607B68224A93420BD07B6843
:103C8C00B3F1804F07D07B681F4A934203D07B6807
:103C9C001E4A934208D1FB6823F44073FB603B68D7
:103CAC00DB68FA681343FB60FB6823F080023B6817
:103CBC005B691343FB607B68FA681A603B689A681F
:103CCC007B68DA623B681A687B689A627B680D4A8B
:103CDC00934203D13B681A697B681A637B680122A3
:103CEC005A617B681B6903F00103002B05D07B68CC
:103CFC001B6923F001027B681A6100BF1437BD46B3
:103D0C0080BC7047002C01400004004000080040BB
:103D1C0080B487B000AFF860B9607A60FB681B6A4A
:103D2C007B61FB681B6A23F00102FB681A62FB686B
:103D3C009B693B613B6923F0F0033B617B681B0192
:103D4C003A6913433B617B6923F00A037B617A690F
:103D5C00BB6813437B61FB683A699A61FB687A69BB
:103D6C001A6200BF1C37BD4680BC704780B487B058
:103D7C0000AFF860B9607A60FB681B6A7B61FB6816
:103D8C001B6A23F01002FB681A62FB689B693B619B
:103D9C003B6923F470433B617B681B033A69134313
:103DAC003B617B6923F0A0037B61BB681B017A69D3
:103DBC0013437B61FB683A699A61FB687A691A6202
:103DCC0000BF1C37BD4680BC704780B485B000AFC7
:103DDC00786039607B689B68FB60FB6823F070033C
:103DEC00FB603A68FB68134343F00703FB607B6896
:103DFC00FA689A6000BF1437BD4680BC704780B427
:103E0C0087B000AFF860B9607A603B60FB689B6874
:103E1C007B617B6923F47F437B613B681A027B687F
:103E2C001A43BB6813437A6913437B61FB687A6955
:103E3C009A6000BF1C37BD4680BC704780B485B00B
:103E4C0000AF786039607B6893F83C30012B01D16E
:103E5C00022346E07B68012283F83C207B68022227
:103E6C0083F83D207B681B685B68FB607B681B6884
:103E7C009B68BB60FB6823F07003FB603B681B68AE
:103E8C00FA681343FB607B681B68FA685A607B68AE
:103E9C001B68164A93420ED07B681B68B3F1804FA7
:103EAC0009D07B681B68124A934204D07B681B685C
:103EBC00104A93420CD1BB6823F08003BB603B6873
:103ECC005B68BA681343BB607B681B68BA689A600E
:103EDC007B68012283F83D207B68002283F83C201C
:103EEC00002318461437BD4680BC7047002C014097
:103EFC00000400400008004080B483B000AF78603C
:103F0C0000BF0C37BD4680BC704780B483B000AF97
:103F1C00786000BF0C37BD4680BC704780B582B05E
:103F2C0000AF78607B68002B01D1012342E07B68F5
:103F3C0093F84130DBB2002B06D17B68002283F86A
:103F4C0040207868FDF732FE7B68242283F84120FC
:103F5C007B681B68DA687B681B6822F40052DA60A5
:103F6C00786800F02BF87B681B681A697B681B6803
:103F7C0022F490421A617B681B685A697B681B6843
:103F8C0022F02A025A617B681B68DA687B681B681E
:103F9C0042F40052DA607B6800225A647B6820226B
:103FAC0083F841207B68202283F842207B68002222
:103FBC005A63002318460837BD4680BD80B584B0CF
:103FCC0000AF78607B681B681B6923F440517B68E9
:103FDC00DA687B681B680A431A617B689A687B689D
:103FEC001B691A437B685B691343BB607B681B6866
:103FFC00DB6823F4B05323F00C037A681268B968B9
:10400C000B43D3607B681B685B6923F440717B684E
:10401C009A697B681B680A435A617B681B682C4A47
:10402C00934203D1FFF756FBF86002E0FFF73EFB2B
:10403C00F860FA6813469B0013449A001A447B6894
:10404C005B689B00B2FBF3F3224AA2FB03235B09E0
:10405C001901FA6813469B0013449A001A447B68B2
:10406C005B689B00B2FBF3F21A4BA3FB02035B09E8
:10407C00642000FB03F3D31A1B013233154AA2FB55
:10408C0003235B0903F0F0031944FA6813469B0001
:10409C0013449A001A447B685B689B00B2FBF3F2F2
:1040AC000C4BA3FB02035B09642000FB03F3D31A44
:1040BC001B013233074AA2FB03235B0903F00F02F7
:1040CC007B681B680A449A6000BF1037BD4680BDF0
:1040DC00003801401F85EB510EB46FF0004100B564
:1040EC009CB01DAB029006900791049108480949B9
:1040FC0053F8042B0591006802A9019300F092F982
:10410C000022029B1A701CB05DF804EB03B07047E0
:10411C00480000200802FFFF03460244934200D1EE
:10412C00704703F8011BF9E7014B1868704700BF93
:10413C004800002070B500260C4D0D4C641BA410DB
:10414C00A64209D100F078FC00260A4D0A4C641BEB
:10415C00A410A64205D170BD55F8043B9847013612
:10416C00EEE755F8043B98470136F2E7304B000870
:10417C00304B0008304B0008344B00087047704738
:10418C0038B50546002940D051F8043C0C1F002BD3
:10419C00B8BFE41800F0DEF81C4A136833B963604A
:1041AC0014602846BDE8384000F0DAB8A34208D9BC
:1041BC00206821188B4201BF19685B6809182160BF
:1041CC00EDE71A465B680BB1A342FAD91168501897
:1041DC00A0420BD120680144501883421160E0D1F9
:1041EC0018685B68084410605360DAE702D90C2346
:1041FC002B60D6E7206821188B4201BF19685B68D9
:10420C000918216063605460CBE738BDBC04002002
:10421C0070B50F4E0C463168054611B900F0AAFB7B
:10422C0030602146284600F0A5FB431C03D14FF01B
:10423C00FF34204670BDC41C24F00304A042F8D007
:10424C00211A284600F096FB0130F2D1EFE700BFAF
:10425C00B80400202DE9F843CD1C25F003050835E2
:10426C000C2D38BF0C25002D064601DBA94204D9C4
:10427C000C2333600020BDE8F883DFF8D48000F015
:10428C0069F8D8F800301C4644BB29463046FFF785
:10429C00BFFF431C044658D1D8F800402746002FD6
:1042AC0043D1002C4BD023683946304604EB03092C
:1042BC0000F060FB814542D1216830466D1A2946D9
:1042CC00FFF7A6FF01303AD023682B442360D8F8BF
:1042DC0000305A6862BBC8F800700FE02268521BAD
:1042EC0020D40B2A17D96119A342256018BF596035
:1042FC00636808BFC8F8001062514B60304600F08C
:10430C002FF804F10B00231D20F00700C21A1CBF6C
:10431C001B1AA350AFE76268A3420CBFC8F8002079
:10432C005A60EBE723466468AEE73C467F68B6E725
:10433C001A465B68A342FBD100235360DEE70C23D3
:10434C003046336000F00CF894E70560D6E700BF08
:10435C00BC0400200148FFF711BF00BFB4040020CB
:10436C000148FFF70CBF00BFB40400202DE9F04753
:10437C001F468E688246BE420C4690460B682DD86E
:10438C00B1F90C2012F4906F26D06569096905EB20
:10439C004505A3EB010905EBD5757B1C4B446D1052
:1043AC009D4238BF1D46530527D52946FFF752FFBE
:1043BC00064660B34A46216900F0FAFAA38923F451
:1043CC00906343F08003A38126614E4426603E46F1
:1043DC006561A5EB0905A560BE4200D93E46324693
:1043EC004146206800F0ACFA0020A3689B1BA36038
:1043FC00236833442360BDE8F0872A4600F0E6FAD0
:10440C0006460028E0D150462169FFF7B9FE0C237F
:10441C00CAF80030A3894FF0FF3043F04003A3816A
:10442C00E9E700002DE9F04F98468B8907461B06FB
:10443C000D4614469DB010D50B6973B94021FFF79A
:10444C0009FF2860286130B90C233B604FF0FF3026
:10445C001DB0BDE8F08F40236B610023099320232E
:10446C008DF8293030234FF00109CDF80C80DFF89E
:10447C0098818DF82A3023469A4613F8012B0AB1FD
:10448C00252AF9D1BAEB040B0BD05B462246294600
:10449C003846FFF76BFF013000F0A780099A5A44A9
:1044AC0009929AF80030002B00F09F8000234FF007
:1044BC00FF32CDE905230AF1010A049307938DF825
:1044CC0053301A935446052214F8011B4E4800F041
:1044DC0061FA049AD8B9D00644BF20238DF8533022
:1044EC00110744BF2B238DF853309AF800302A2B38
:1044FC0015D0544600204FF00A0C079A214611F8AB
:10450C00013B303B092B4BD9B0B1079214E0A0EB27
:10451C00080309FA03F31343A2460493D2E7039B5F
:10452C00191D1B680391002BBBBF5B4242F00202BA
:10453C0007930793B8BF049223782E2B0AD1637884
:10454C002A2B32D1039B02341A1D1B68039243EAB7
:10455C00E3730593DFF8B4A003225046217800F0F2
:10456C0019FA38B14022049BA0EB0A008240134395
:10457C000134049314F8011B062225488DF82810E9
:10458C0000F008FA002836D0224B1BBB039B0733E4
:10459C0023F0070308330393099B334409936AE719
:1045AC000C4601200CFB0232A8E700234FF00A0C4A
:1045BC00194601340593204610F8012B303A092A8C
:1045CC0003D9002BC6D00591C4E7044601230CFB8C
:1045DC000121F0E703AB00932A4638460E4B04A9A1
:1045EC00AFF30080421C0646D6D1AB895B063FF583
:1045FC002DAF09982CE703AB00932A463846064B9F
:10460C0004A900F07DF8EDE7F24A0008F84A00082A
:10461C00FC4A000800000000794300082DE9F0472F
:10462C00164698468A680B6907469342B8BF1346EC
:10463C00336091F843200C46DDF820900AB1013329
:10464C0033602368990642BF3368023333602568B0
:10465C0015F0060506D104F1190AE36832689B1AB5
:10466C00AB422BDC94F843302268003B18BF01238B
:10467C00920630D44146384604F14302C847013013
:10468C0023D02368226903F00603042B14BF0025F2
:10469C0033684FF0000608BFE56804F11A0408BF40
:1046AC00ED1A54F8123C08BF25EAE5759342C4BFD5
:1046BC009B1AED18B5421AD1002008E0012352468E
:1046CC0041463846C847013003D14FF0FF30BDE8B2
:1046DC00F0870135C1E73020E11881F843005A1CFE
:1046EC0094F845102244023382F84310C2E70123A8
:1046FC00224641463846C8470130E6D00136D9E754
:10470C002DE9FF470F7E9146782F80460C469A463E
:10471C000C9E01F1430207D8622F0AD8002F00F03B
:10472C00D380582F00F0BA8004F1420684F842700E
:10473C003AE0A7F16303152BF6D801A151F823F049
:10474C00A5470008B9470008354700083547000859
:10475C003547000835470008B947000835470008B9
:10476C00354700083547000835470008BB480008A6
:10477C00E34700087548000835470008354700082E
:10478C00DD48000835470008E347000835470008B6
:10479C00354700087D48000833681A1D1B683260D5
:1047AC0004F1420684F8423001239EE0336820680D
:1047BC00191D3160060601D51D6803E04506FBD5C1
:1047CC00B3F90050002D03DA2D236D4284F84330E9
:1047DC000A23594811E021683368080653F8045B32
:1047EC0002D4490648BFADB26F2F336014BF0A2301
:1047FC0008235148002184F843106668002EA8BF96
:10480C002168A660A4BF21F0040121600DB9002E1F
:10481C004BD01646B5FBF3F103FB1157C75D06F8F9
:10482C00017D2F46BB420D46F4D9082B0BD12368D2
:10483C00DF0708D5236961689942DEBF302306F88B
:10484C00013C06F1FF36921B22614B462146404645
:10485C00CDF800A003AAFFF7E1FE01304AD14FF0DA
:10486C00FF3004B0BDE8F087236843F020032360D9
:10487C007827324884F84570236831681F0651F850
:10488C00045B02D45F0648BFADB23160D90744BFA8
:10489C0043F0200323601DB11023ABE72648E9E762
:1048AC00236823F020032360F6E71646BDE7336840
:1048BC002568181D616930602E061B6801D51960CA
:1048CC0002E06806FBD51980002316462361BCE77D
:1048DC00336800211A1D32601E686268304600F091
:1048EC0059F808B1801B606063682361002384F869
:1048FC004330AAE73246494640462369D047013047
:10490C00ADD023689B0713D4E068039B9842B8BFD3
:10491C001846A6E70123324649464046D0470130A7
:10492C009DD00135E36803995B1AAB42F2DCEBE7EF
:10493C00002504F11906F5E7034B0008144B000899
:10494C00884210B501EB020402D98442234607D8F1
:10495C00431EA14208D011F8012B03F8012FF8E7F0
:10496C00014602448A4200D110BD13F8014D02F8F1
:10497C00014DF7E738B50023054D044608462B607A
:10498C00FDF790F9431C02D12B6803B1236038BDAD
:10499C00B0040020034610B5C9B202449342184635
:1049AC0001D1002003E0047801338C42F6D110BD14
:1049BC000A44914200F1FF3300D1704710B511F851
:1049CC00014B914203F8014FF9D110BD2DE9F04193
:1049DC00804615460C4621B91146BDE8F041FFF75B
:1049EC0039BC2AB9FFF7CCFB00242046BDE8F08186
:1049FC0000F01AF88542064602D8B5EB500FF4D8F1
:104A0C0029464046FFF726FC07460028ECD0B54265
:104A1C002A46214628BF3246FFF7CAFF21464046A8
:104A2C00FFF7AEFB3C46E0E751F8043C181F002BA7
:104A3C00BCBF0B58C0187047F8B500BFF8BC08BC19
:104A4C009E467047F8B500BFF8BC08BC9E46704740
:104A5C002564000054524146464943204C4947487E
:104A6C005400000053595354454D000054524146D4
:104A7C00464943313A20000054524146464943329C
:104A8C003A2000004D414E55414C204D4F444500BD
:104A9C0054554E4E494E47204D4F444500000000A2
:104AAC005245443A20000000475245454E3A2000FA
:104ABC0059454C4C4F573A200000000000000000B4
:104ACC0000000000010203040607080900000000B2
:104ADC000102030402030405060708090A0B0C0D66
:104AEC000E0F10100102232D302B2000686C4C008F
:104AFC0065666745464700303132333435363738D2
:104B0C00394142434445460030313233343536372F
:0C4B1C00383961626364656600000000C7
:084B280024B6FF7F010000002C
:044B30003101000847
:044B34000D01000867
:104B3800000C0140000C0140000801400008014041
:104B480010000004000100020008014000080140B4
:104B58000100100000080140000C014002000100A3
:104B680000127A0088130000B80B0000D00700007C
:104B780010000000010000004C00002000000000B0
:104B880078030020E0030020480400200000000013
:104B9800000000000000000000000000000000000D
:104BA80000000000000000000000000000000000FD
:104BB80000000000000000000000000000000000ED
:084BC8000000000000000000E5
:0400000508001E9D34
:00000001FF
